:100000000C9462000C948A000C948A000C948A0070
:100010000C948A000C948A000C948A000C948A0038
:100020000C948A000C948A000C948A000C948A0028
:100030000C948A000C948A000C948A000C948A0018
:100040000C94CF020C948A000C943F030C94190377
:100050000C948A000C948A000C948A000C948A00F8
:100060000C948A000C948A000000000023002600F3
:10007000290000000000240027002A0000000000E2
:10008000250028002B0004040404040404040202D4
:100090000202020203030303030301020408102007
:1000A0004080010204081020010204081020000012
:1000B0000008000201000003040700000000000027
:1000C0000000190511241FBECFEFD8E0DEBFCDBF61
:1000D00011E0A0E0B1E0EEE1FBE002C005900D927E
:1000E000A231B107D9F721E0A2E1B1E001C01D9230
:1000F000A83BB207E1F710E0C2E6D0E004C02197C8
:10010000FE010E948705C136D107C9F70E94B603D8
:100110000C948D050C940000833081F028F481301C
:1001200099F08230A9F008958730A9F08830C9F09D
:100130008430B1F4809180008F7D03C08091800075
:100140008F7780938000089584B58F7784BD08955C
:1001500084B58F7DFBCF8091B0008F778093B00006
:1001600008958091B0008F7DF9CF1F93CF93DF93D7
:10017000282F30E0F901E255FF4F8491F901E6564E
:10018000FF4FD491F901EA57FF4FC491CC23A9F056
:10019000162F81110E948C00EC2FF0E0EE0FFF1F54
:1001A000E458FF4FA591B4918FB7F894EC911111D9
:1001B00008C0D095DE23DC938FBFDF91CF911F91D4
:1001C0000895DE2BF8CFCF93DF9390E0FC01E65645
:1001D000FF4F24918A579F4FFC0184918823C9F0D7
:1001E00090E0880F991FFC01EE58FF4FA591B49144
:1001F000FC01E458FF4FC591D49161110DC09FB728
:10020000F8948C91209582238C93888128232883CD
:100210009FBFDF91CF910895623051F49FB7F8945A
:100220003C91822F809583238C93E8812E2BEFCFF6
:100230008FB7F894EC912E2B2C938FBFEACF3FB75A
:10024000F8948091170190911801A0911901B09133
:100250001A0126B5A89B05C02F3F19F00196A11DD4
:10026000B11D3FBFBA2FA92F982F8827BC01CD0100
:10027000620F711D811D911D42E0660F771F881F5F
:10028000991F4A95D1F708958F929F92AF92BF928E
:10029000CF92DF92EF92FF924B015C010E941F010F
:1002A0006B017C010E941F016C197D098E099F0959
:1002B000683E734081059105A8F321E0821A9108F8
:1002C000A108B10888EEC80E83E0D81EE11CF11C1D
:1002D00081149104A104B10429F7FF90EF90DF90FD
:1002E000CF90BF90AF909F908F900895AF92BF92A4
:1002F000CF92DF92EF92FF920F931F93CF93DF93F2
:100300006C017B018B01040F151FEB015E01AE1820
:10031000BF08C017D10759F06991D601ED91FC9142
:100320000190F081E02DC6010995892B79F7C5016F
:10033000DF91CF911F910F91FF90EF90DF90CF90C1
:10034000BF90AF900895FC01538D448D252F30E070
:10035000842F90E0821B930B541710F0CF960895D2
:1003600001970895FC01918D828D981761F0A28DFF
:10037000AE0FBF2FB11D5D968C91928D9F5F9F73C5
:10038000928F90E008958FEF9FEF0895FC01918D7B
:10039000828D981731F0828DE80FF11D858D90E0E8
:1003A00008958FEF9FEF0895FC01918D228D892F85
:1003B00090E0805C9F4F821B91098F73992708956D
:1003C0008BE191E00E94D40121E0892B09F420E027
:1003D000822F089580E090E0892B29F00E94E001AF
:1003E00081110C9400000895FC01A48DA80FB92F71
:1003F000B11DA35ABF4F2C91848D90E001968F734D
:100400009927848FA689B7892C93A089B1898C916B
:10041000837080648C93938D848D981306C00288BA
:10042000F389E02D80818F7D80830895EF92FF9284
:100430000F931F93CF93DF93EC0181E0888F9B8D07
:100440008C8D98131AC0E889F989808185FF15C0C1
:100450009FB7F894EE89FF896083E889F9898081E4
:100460008370806480839FBF81E090E0DF91CF91B3
:100470001F910F91FF90EF900895F62E0B8D10E0D5
:100480000F5F1F4F0F731127E02E8C8D8E110CC044
:100490000FB607FCFACFE889F989808185FFF5CF8F
:1004A000CE010E94F401F1CFEB8DEC0FFD2FF11D79
:1004B000E35AFF4FF0829FB7F8940B8FEA89FB89CC
:1004C00080818062CFCF1F93CF93DF93CDB7DEB70C
:1004D0002B970FB6F894DEBF0FBECDBF972F77FDD9
:1004E000946019861A861B862FEF29832A8327E0BA
:1004F0002C8323E02D832EE22E838B8382E38F8354
:1005000068879987FE013396CE010C9610E0219101
:10051000120FE817F907D9F74BE050E0BE016F5F03
:100520007F4F8BE191E00E947601612F60958BE116
:1005300091E00E9416022B960FB6F894DEBF0FBE14
:10054000CDBFDF91CF911F910895CF93DF93EC0141
:10055000888D8823B9F0AA89BB89E889F9898C91AB
:1005600085FD03C0808186FD0DC00FB607FCF7CF67
:100570008C9185FFF2CF808185FFEDCFCE010E9467
:10058000F401E9CFDF91CF91089570E060E084E05D
:100590000E94630270E060E085E00C9463021F92A9
:1005A0000F920FB60F9211242F933F938F939F9327
:1005B000AF93BF938091130190911401A091150105
:1005C000B09116013091120123E0230F2D3758F519
:1005D0000196A11DB11D20931201809313019093E8
:1005E0001401A0931501B093160180911701909109
:1005F0001801A0911901B0911A010196A11DB11D18
:100600008093170190931801A0931901B0931A01D8
:10061000BF91AF919F918F913F912F910F900FBEFE
:100620000F901F90189526E8230F0296A11DB11D6B
:10063000D2CF1F920F920FB60F9211242F933F9398
:100640004F935F936F937F938F939F93AF93BF93DA
:10065000EF93FF938BE191E00E94F401FF91EF9102
:10066000BF91AF919F918F917F916F915F914F91CA
:100670003F912F910F900FBE0F901F9018951F92D2
:100680000F920FB60F9211242F938F939F93EF9396
:10069000FF93E0912B01F0912C018081E0913101D9
:1006A000F091320182FD1BC09081809134018F5FF7
:1006B0008F7320913501821741F0E0913401F0E011
:1006C000E55EFE4F958F80933401FF91EF919F91EE
:1006D0008F912F910F900FBE0F901F9018958081D2
:1006E000F4CFCF92DF92EF92FF920F931F93E82FF8
:1006F000F92F05C0015011092109310961F19081DB
:1007000096239417B9F305C0015011092109310945
:1007100011F1908196239413F7CFC12CD12CE12CA9
:10072000F12C0AC08FEFC81AD80AE80AF80A0C158B
:100730001D052E053F0579F080818623841791F3EE
:100740006C2D7D2D8E2D9F2D1F910F91FF90EF9081
:10075000DF90CF90089560E070E080E090E01F911E
:100760000F91FF90EF90DF90CF900895789484B52B
:10077000826084BD84B5816084BD85B5826085BD9D
:1007800085B5816085BD80916E00816080936E002B
:10079000109281008091810082608093810080911D
:1007A00081008160809381008091800081608093CE
:1007B00080008091B10084608093B1008091B0008E
:1007C00081608093B00080917A00846080937A0089
:1007D00080917A00826080937A0080917A008160B3
:1007E00080937A0080917A00806880937A001092DA
:1007F000C10061E08DE00E94E300E0912B01F091E7
:100800002C0182E08083E0912701F0912801108281
:10081000E0912901F0912A0180E180831092330157
:10082000E0912F01F091300186E08083E0912D016D
:10083000F0912E01808180618083E0912D01F09103
:100840002E01808188608083E0912D01F0912E013E
:10085000808180688083E0912D01F0912E0180815C
:100860008F7D808361E085E00E94E30060E084E0AA
:100870000E94E30062E08AE00E94E300C8EBD0E05F
:1008800004EA10E060E9E62E60E0F62EFE018491B5
:10089000F801C490F701D490D11015C061E08DE04B
:1008A0000E94B50064EF71E080E090E00E94440196
:1008B00060E08DE00E94B50064EF71E080E090E0C0
:1008C0000E944401E3CF81110E948C00ED2DF0E0E5
:1008D000EE0FFF1FE859FF4FA591B4918C91C822EC
:1008E000E9F2C6E0D0E061E08DE00E94B50064E688
:1008F00070E080E090E00E94440160E08DE00E94A2
:10090000B50064E670E080E090E00E944401219729
:1009100051F760E273E084E00E94630260EE7CEFD6
:1009200085E00E9463028FB7F894C0901301D090C5
:100930001401E0901501F09016018FBFC3E0D0E0E4
:1009400093E2A92EB12C2EE9222E20E0322E3AE895
:10095000832E30E0932E4AE3442E512C612C712CCF
:100960002FB7F8948091130190911401A091150173
:10097000B09116012FBF8C199D09AE09BF09803DAA
:100980009740A105B10508F03DC060E085E00E94F8
:10099000B500CE010197F1F761E085E00E94B50056
:1009A000C5010197F1F760E085E00E94B500F10113
:1009B0006491F4018491E82FF0E0EE0FFF1FE859F5
:1009C000FF4F8591949100E315E720E030E0462F3A
:1009D0000E947103611571058105910501F16F5F39
:1009E0007F4F8F4F9F4F9F70611571058105910556
:1009F000B1F0A30192010E9446052150310929302E
:100A0000310580F40E94C502C0E0D0E02097F1F3E8
:100A10000E94E0018823D1F30E940000F7CF2FEF5E
:100A20003FEFEBCF64E170E080E090E00E94440192
:100A300097CFEBE1F1E01382128288EE93E0A0E021
:100A4000B0E084839583A683B78384E091E09183AB
:100A5000808385EC90E09587848784EC90E097878D
:100A6000868780EC90E0918B808B81EC90E0938B7B
:100A7000828B82EC90E0958B848B86EC90E0978B58
:100A8000868B118E128E138E148E0895052E97FB71
:100A90001EF400940E945D0557FD07D00E94650575
:100AA00007FC03D04EF40C945D05509540953095AD
:100AB00021953F4F4F4F5F4F0895909580957095CA
:100AC00061957F4F8F4F9F4F0895A1E21A2EAA1B69
:100AD000BB1BFD010DC0AA1FBB1FEE1FFF1FA217EE
:100AE000B307E407F50720F0A21BB30BE40BF50BEB
:100AF000661F771F881F991F1A9469F76095709574
:100B0000809590959B01AC01BD01CF010895EE0F3A
:0E0B1000FF1F0590F491E02D0994F894FFCF9B
:100B1E000000000016027601A301A502D401B20165
:020B2E00C601FE
:00000001FF
